:020000041000EA
:1000000000B5324B212058609868022188439860DF
:10001000D860186158612E4B002199600221596106
:100020000121F02299502B49196001219960352056
:1000300000F044F80222904214D00621196600F024
:1000400034F8196E01211966002018661A6600F04E
:100050002CF8196E196E196E052000F02FF8012189
:100060000842F9D1002199601B49196000215960AB
:100070001A491B48016001219960EB211966A021F2
:10008000196600F012F800219960164914480160C1
:100090000121996001BC002800D000471248134993
:1000A000086003C880F30888084703B5996A0420EC
:1000B0000142FBD001200142F8D103BD02B5186610
:1000C0001866FFF7F2FF186E186E02BD00000240BE
:1000D000000000180000070000035F00212200005C
:1000E000F4000018222000A00001001008ED00E03C
:1000F00000000000000000000000000074B24E7A12
:1001000000200420F7010010C3010010C5010010F9
:10011000C1010010C1010010C1010010C101001097
:10012000C1010010C1010010C1010010C701001081
:10013000C1010010C1010010C9010010CB01001065
:10014000CD010010CD010010CD010010CD01001037
:10015000CD010010CD010010CD010010CD01001027
:10016000CD010010CD010010CD010010CD01001017
:10017000CD010010CD010010CD010010CD01001007
:10018000CD010010CD010010CD010010CD010010F7
:10019000CD010010CD010010CD010010CD010010E7
:1001A000CD010010CD010010CD010010CD010010D7
:1001B000CD010010CD010010CD010010CD010010C7
:1001C00000BE00BE00BE00BE00BE00BE00F04BF888
:1001D000103800BEF2EB887110E4041034E404100F
:1001E0003402001090A31AE700202149086006C8D5
:1001F00081F3088810471F48006800282FD10DA4FC
:100200000ECC002902D000F012F8F9E71A491B4A77
:10021000002000E001C19142FCD1194988471949E9
:1002200088471949884700BEFDE701C901C29A42C3
:10023000FBD3704734E40410C0000020801B002072
:10024000F4FE04100000042000000420F4FE04105A
:1002500000100420001004200000000070470B482C
:1002600004F0E8FC0047EFF30580C0B270470000DF
:1002700008ED00E0000000D0801B002048CE0120E7
:100280001D360010A9030010D93500105756000084
:1002900006005250ABB36053D04E011006005250CE
:1002A000861C0302E04E0110060052505422A29D0B
:1002B000EC4E011005005250DE65F468F4FE0410A7
:1002C000F8B5C0460448054B10B5834203D0044B33
:1002D000002B00D0984710BD801B0020801B002001
:1002E0000000000006480749091A8B10C90FC918F9
:1002F00010B5491003D0044B002B00D0984710BD17
:10030000801B0020801B00200000000010B5074C5F
:100310002378002B09D1FFF7D5FF054B002B02D026
:10032000044800E000BF0123237010BD881C00209A
:100330000000000058370110054B10B5002B03D00A
:100340000449054800E000BFFFF7CCFF10BDC046E0
:10035000000000008C1C00205837011070B504000C
:100360000D00012805D0002C02D10A4B9D420CD073
:1003700070BD084B9942F6D1074800F0F7F9074BDA
:10038000074A1A60074A1A60EDE7034800F0DCF9F3
:10039000EEE7C046FFFF000044CD012098CD0120CC
:1003A000C0370110C83B011010B59EB005F0A8FA87
:1003B000254805F067FA254811F0B6F8012100201C
:1003C00005F08AFE1CAA0021214808F0D1FF041E76
:1003D0001ED1204805F088FA042C06DC1CAB195D00
:1003E0001D4805F081FA0134F6E71CAB59791B482A
:1003F00005F07AFA0CE001A800F058FB184805F067
:1004000041FAFA20800002F0C5FB164800F0B6F968
:10041000154B164A1649134800F09CF90028EDD0F8
:10042000144C1549200000F0E1FF210001A800F064
:100430008FFA124901A800F0F1FA0028DBD001A8D8
:1004400000F062FBD7E7C04658370110FD060010E8
:10045000082101206C370110783701108037011016
:10046000A437011044CD01203075000088370110F9
:100470009837011098CD012040120020901F0000F5
:1004800010B502490120FFF769FF10BDFFFF000012
:10049000F0B587B0040084235B00FF221204C25031
:1004A0000433FF221206C2500433FF221202C2504C
:1004B0000433FF22C250B03B1932835004328350C0
:1004C000BC330022C2503E4D3E49280005F08EFB51
:1004D00006000621072001F083F90123009307227B
:1004E0000021280005F002FC1022002102A805F0DE
:1004F0009FF880235B020293F8235B02039380231F
:10050000DB020493C0231B030493F21CF3011203C8
:10051000134303938022920505922B490B400393CA
:10052000E0235B0113430593C022D202049280238F
:10053000DB0513430493052003F00CFA04F0AAFF33
:10054000224904F08CFF071C04F0CCFF85B2002D7B
:100550001FD0280004F09EFF011C381C04F079FF16
:100560008721C90504F08FFF04F0BCFFC3B21B0252
:100570002D041D430295124D02AB320000212800CC
:1005800005F0ECFB2B680122934313432B600023FF
:1005900006E00023EBE79A1C920000211151013381
:1005A0003F2BF8DD25002535FF3501F07BFA0300F0
:1005B00010222421280002F037FF200007B0F0BDF0
:1005C00000002050D8370110FFFFFF9F0024F44A9D
:1005D00010B5012800D010BD034B9942FBD1034850
:1005E000FFF756FFF7E7C046FFFF0000A02F0120EE
:1005F00000223F2A0ADC931C9B001958044B5B68BD
:10060000DB03FBD4024B19610132F2E77047C046AD
:100610000000205070B50D0001604260090C2E0AE8
:10062000FF2421400904360631432C402402214393
:100630001143002303E09A1C9200115001333F2B19
:10064000F9DDFFF7D5FF70BD30B58BB00400253064
:10065000FF300268EFF3108172B61368002BFCD0F4
:10066000BFF35F8F038942899B1A1ED40268BFF3D0
:100670005F8F0025156081F31088002B19D18E2221
:100680005200A358013BA350002B0CD12133FF3360
:10069000E058002802D003681B6898478C235B0051
:1006A000E2580433E2500BB030BDC28901329B18CE
:1006B000DCE701A902F0CFFE0028E0D001AB1B88E7
:1006C000012B08D0022B0DD0002BD8D12133FF33C2
:1006D0000022E250D3E701AB1A7A02992000FFF71B
:1006E00099FFCCE78C235B00039AE250C7E710B573
:1006F0002530FF3002F0AAFE10BD000010B50548FD
:10070000FFF776FF0348FFF79FFF012002F042FA50
:10071000F8E7C046A02F012010B502490120FFF7DD
:1007200057FF10BDFFFF000010B504000023037049
:10073000044805F0C9FC002801D0012323702000E3
:1007400010BDC0464742000010B5040005F002FD90
:10075000200010BD10B508001100034A05F01EFC72
:1007600043425841C0B210BD0400400010B504001F
:10077000FFF7DAFF05F088FC200010BD10B505F08A
:10078000E9FC034805F0A0FC05F07EFC10BDC04666
:10079000474200008068431E9841C0B2704710B5C0
:1007A0000100436818680368DB68984710BD10B5FE
:1007B00004004368186803685B68210098470023B9
:1007C000A36010BD70B5040015001100054805F0C8
:1007D0008BF86368186803685B692A0021009847F2
:1007E00070BDC046E837011010B5040080680028CD
:1007F00024D000210AF092F900220021A0680AF01A
:10080000A9F90021A0680AF092F90021A0680AF075
:1008100089F90021A0680AF08FF9A0680AF04EFC5F
:10082000011E02D10023A36010BD054805F05CF84D
:10083000A0680AF099FA0D204042F3E70020F1E7A2
:10084000FC37011010B5040080680AF08DFA00230F
:10085000A3600D20404210BDF0B583B006000191A9
:1008600017001C00002A0AD005F0FEFC3989002977
:1008700023D02200134805F037F83C000CE0436811
:10088000186803685B683100984733685B6830001C
:10089000984703B0F0BD2468002C0AD0736818682C
:1008A00003689D68638962683100A8470028F2D018
:1008B000EFE7398901980AF0E3F8380009F013FCF2
:1008C0000020E6E71C380110F8B506000D00140002
:1008D0001F0011000B4805F007F805F0C5FC002FBC
:1008E00009D10123A2B2B06829000CF0BDFC041E9E
:1008F00003D12000F8BD0323F4E70100024804F00F
:10090000F3FFF6E7383801105838011010B514001D
:1009100082604160010010000AF000F908492000DF
:100920000AF005F9074920000AF0FCF80A220649F6
:1009300020000AF00FF9054920000AF0FDF810BD6B
:10094000C5070010590800109F070010AF070010DE
:100950000160002343600372437203000C330721DC
:1009600009E0064A1A60064A08321A6000225A60F4
:100970009A600C3301390029F3DA704710390110FD
:1009800020390110F0B583B0050001911600002751
:10099000072F1CDC7B00DC19A40008342C1904345C
:1009A000DB199B00EB18DB689B6820009847002848
:1009B00001D00137ECE7320001992000FFF7A6FFD4
:1009C00028000C307B00DF19BF00C01900E00020B8
:1009D00003B0F0BD70B505000E00141E11D1002942
:1009E0000FD00C4804F04EFF320029002800FFF71A
:1009F000C9FF011E0BD0286803681B6898472000B8
:100A000070BD054804F03EFF06204042F8E7012093
:100A10004042F5E7883801107438011070B50600BF
:100A20000D001C4B1868043010F03CFC01002A003B
:100A3000194804F059FF2E200AF0ACFA041E15D014
:100A40002A00002109F02EFF002814D101212000E6
:100A500009F0F4FF7060002813D031000AF05EF84E
:100A600070680E490AF06DF8012070BD0C4804F062
:100A700009FF0020F9E729000A4804F035FF0020AB
:100A8000F3E7094804F0FEFE20000AF017FB0020FF
:100A9000EBE7C04604CB01209C380110D5090010BB
:100AA000C0380110D8380110F438011070B50600B4
:100AB000002500E00135072D17DC6B005C19A40050
:100AC0000834341904345B199B00F318DB689B6805
:100AD000200098470028EDD06B005B199B00F318AD
:100AE000DB685B6820009847E4E77068002807D05F
:100AF00000210AF013F870680AF0E0FA002373602E
:100B000001233372002070BD10B5040001E005F030
:100B100067FB237A002BFAD010BD0300613BDBB2E8
:100B2000052B0AD8573800010B00613BDBB2052BBF
:100B300015D857394018C0B270470300413BDBB2AB
:100B4000052B02D837380001EEE70300303BDBB25B
:100B5000092B02D830380001E6E73F20E4E70B001C
:100B6000413BDBB2052B02D837394018E3E70B00D5
:100B7000303BDBB2092BDED830394018DBE70020F0
:100B80007047000010B51100014804F0ADFE10BD23
:100B90003839011010B50C001100044804F0A4FE0F
:100BA00023685B6820009847002010BD443901107D
:100BB00010B5024804F066FE10BDC0465039011061
:100BC00010B5024804F05EFE10BDC0465C3901104D
:100BD00010B5012800D010BD034B9942FBD103484A
:100BE00000F0A2FCF7E7C046FFFF0000E81C002071
:100BF00010B5040001604260024804F075FE200058
:100C000010BDC0466439011010B50300080019007A
:100C100000F0E2FC10BD10B5406811F0B3FC10BD4F
:100C200010B540680378232B04D01022002112F065
:100C30005FFB10BD0130F8E710B5040001604260B1
:100C4000024804F051FE200010BDC0467839011062
:100C500010B503000800190000F0BEFC10BD000034
:100C600070B505000E00006812F014FA0400686800
:100C700012F010FA2418611D300000F0ADFC0400E1
:100C80002B68020002E0013311700132197800294B
:100C9000F9D13A231370931C202151706A6802E045
:100CA00001321970013311780029F9D10D221A701F
:100CB000033A5A7000229A702100024804F014FE90
:100CC000200070BD9039011070B50400016000254E
:100CD00045608560C560103000F0A6FC20003C3007
:100CE00000F0A2FCA566E566200070BDF8B5DE4602
:100CF00057464E464546E0B580460D0016001C009E
:100D00001268426007E07B1C2B603A783368591CFC
:100D100031601A70013C002C05DD2F68387811F025
:100D200077FC0028EFD033685A1C326000221A701A
:100D3000002C09DD2F68387811F06AFC002803D0F8
:100D400001372F60013CF3E7434632689A600AE0BE
:100D50004B463F2B26D07B1C2B603A783368591CBE
:100D600031601A70013C2F683B789946180011F0E9
:100D70004FFC00281AD1002C25D04B46252BE7D15B
:100D8000022CE5DD7A1C2A60BB1C2B607878FB1CEA
:100D90002B60B978033CFFF7C0FE33685A1C326001
:100DA0001870E0E701372F60013C00E0002733684E
:100DB0005A1C326000221A70002F71D033689B4693
:100DC00000239A461DE00027F1E7022C26DD7A1C5D
:100DD0002A60BB1C2B607878FB1C2B60B978033C25
:100DE000FFF79BFE33685A1C3260187009E0013728
:100DF0002F6033685A1C326000221A70013C33683D
:100E00009A462F683B789946180011F001FC00289B
:100E100030D1002C2ED04B46252BD6D04B463D2B27
:100E2000E5D0262B08D07B1C2B603A783368591C00
:100E300031601A70013CE4E701372F6033685A1CB7
:100E4000326000221A70013C434619680820FFF7FF
:100E5000DBFE070052465946FFF7CAFE40461030F7
:100E60003A004346196800F0F2FB33689B460023C2
:100E70009A46C6E733685A1C326000221A7043460D
:100E800019680820FFF7C0FE070052465946FFF7D1
:100E9000AFFE404610303A004346196800F0D7FBD9
:100EA000002C08DD2F68387811F0B2FB002802D042
:100EB00001372F60013C43463268DA6002E00137B7
:100EC0002F60013C002C10D02F6838780D28F6D008
:100ED0000A2807D011F09CFB002821D001372F6091
:100EE000013CEFE701372F60013C33685A1C326048
:100EF00000221A70434659680E4804F0F5FC434638
:100F000099680D4804F0F0FC4346D9680B4804F09A
:100F1000EBFC2000F0BCBB46B246A946A046F8BD9B
:100F20007B1C2B603A783368591C31601A70013C85
:100F3000C8E7C046A4390110B0390110BC3901100E
:100F4000F8B5CE46474680B580460D0017001C1EFA
:100F500063D013689946002C0FD02B681A783A2A70
:100F600008D05A1C2A601A783B68591C39601A70DC
:100F7000013CF0E701332B60013C3B685A1C3A60AE
:100F800000221A70002C09D02E68307811F040FB36
:100F9000002803D001362E60013CF3E7002C2ED050
:100FA0003E68002C0ED02B681A780D2A0AD00A2A27
:100FB00008D05A1C2A601A783B68591C39601A708C
:100FC000013CEEE73B685A1C3A6000221A704B461F
:100FD000002B12D0002E10D0434619680820FFF7CE
:100FE00037FE070032004946FFF726FE43461968E0
:100FF00040463C303A0000F02AFB200004E0002686
:10100000E5E701332B600138002807D02B681A78F8
:101010000D2AF6D00A2AF4D000E01800C0BCB94668
:10102000B046F8BD30B50400181E10D01368A36692
:1010300008E00B685C1C0C601C7813685D1C156074
:101040001C7001380028F4D1136800221A7030BDDA
:1010500070B582B005000C0016001100006800F0A9
:10106000BBFA019000281DD000941B4804F00AFC34
:10107000330001AA69462800FFF738FE84B2002C2D
:1010800017D0009B1B780D2B13D00A2B11D01348BF
:1010900004F0F8FB230001AA69462800FFF750FF7F
:1010A00084B2ECE70E4BEB6614E001330093013C95
:1010B000A4B2002C05D0009B1A780D2AF5D00A2A7C
:1010C000F3D0084804F0DEFB230001AA694628009B
:1010D000FFF7A8FF02B070BDF43901100C3A0110FF
:1010E000CC3901101C3A011010B5040002C000F008
:1010F0009BFAC8232363034B63630023A36320008D
:1011000010BDC0462C3A0110016342637047F8B528
:1011100004000E00170001680820FFF799FD050084
:101120003A003100FFF788FD200002C82A0000F0D5
:101130008EFAF8BD8163704770B50600406B11F000
:10114000A9FF01000E31306800F046FA051E2AD0D2
:101150000400184B02E00133227001341A78002A8F
:10116000F9D1FA239B00326B9A4201DB124B3363B5
:101170000A222100306B11F06BFA00E00134237871
:10118000002BFBD1631C20222270726B02E0013223
:101190001C7001331478002CF9D10D221A70033A17
:1011A0005A7000229A702900044804F09DFB280020
:1011B00070BDC046303A0110E70300003C3A011010
:1011C00070B504000D000430FFF77EFD2000743080
:1011D0002900FFF789FF200070BD10B5030008004B
:1011E000190000F0F9F910BDF0B5D6464F46464655
:1011F000C0B584B080460F00150099461E00190046
:101200006A4804F071FB002403E0285D04F006FB4B
:101210000134A642F9DC664804F034FB654800F06E
:101220009BF9061E31D001000820FFF7EDFC624A51
:101230006249FFF7DDFC624804F024FB3100B02076
:10124000FFF7CBFF04003100FFF7BAFF5D4804F061
:1012500019FB231D9A464A4629001800FFF7F8FE9D
:10126000236F9946002B1BD03B681C68484611F041
:1012700011FF0200002349463800A047002004B0B7
:10128000E0BCBA46B146A846F0BD4F4804F02CFB7E
:101290003B681C68002318224C493800A047EDE742
:1012A000E268A1684A4804F01FFB002500E0013510
:1012B00084234246D358AB4219D9AB004344586803
:1012C00003681B68E268A16898470028EFD0AB006C
:1012D00043445B6899463F4804F0D4FA4B461B6888
:1012E0005B6822007432514648469847DFE74B4618
:1012F000002B4FD020007430FFF71EFF05000100C7
:10130000354804F0F1FA3B681B689846280011F054
:10131000C1FE0200002329003800C04721007831B7
:1013200002A800F0B0F9082202A9684604F086F984
:10133000684600F0AEF9002813D03100FFF790FCAA
:1013400005000100254804F0CFFA3B681B68984669
:10135000280011F09FFE0200002329003800C0473A
:10136000E6E73B681D68002302221D493800A847B4
:10137000AC23E458002C09D03B681D68200011F014
:1013800089FE0200002321003800A847300000F049
:101390009FF873E7134804F075FA3B681C68002354
:1013A000422211493800A047F0E7C046503A0110E8
:1013B000743A0110E81C0020D03A0110D83A01100C
:1013C000E03A0110F43A0110983A0110B43A0110D1
:1013D000043B0110243B0110443B01105C3B011015
:1013E000BC3B0110703B01107C3B011010B5842305
:1013F000C358202B07D05C1C842284509B00C0184B
:101400004160012010BD0020FCE7000010B502493A
:101410000120FFF7DDFB10BDFFFF0000802252011D
:101420000B4B835000230B4943500B4942500B4A4E
:1014300083540B4A83500B4BC050002302E0002220
:10144000C2540133802252019342F8DB7047C046F8
:10145000AAAAAAAA04100000081000000C1000009C
:10146000101000001410000030B50300074A825825
:101470008A4208D3064D4459001964185C51511A28
:10148000024A995030BD0020FCE7C0460810000019
:1014900004100000084BC1500023084A8350084A3A
:1014A000802149018150074A8350074BC050074BA8
:1014B0000122C2547047C0461810000004100000FA
:1014C0000810000010100000141000000C100000A4
:1014D00010B504000F4B0022C254002302E000228A
:1014E000E2540133802252019342F8DB0A4B00227E
:1014F000E2500A4B80225201E250094BE450094B62
:10150000E058002801D0FFF7E3FF064B0022E2502D
:1015100010BDC0460C1000000410000008100000B0
:10152000141000001010000070B5060005000F2414
:1015300006E02800FFF772FF054B9C466544013C1E
:10154000002CF6DA034B0022F250300070BDC0468A
:101550001C100000C001010070B5040001001A4811
:1015600004F0C2F900210F2927DC184BE258D301FF
:101570009B18DB009B1A9B00E318154884466344C4
:101580001B78002B0AD00132D3171B0FD0180F2263
:101590000240D21A0D4BE2500131E4E7D501AD18FB
:1015A000ED00AD1AAD00651921002800FFF772FFAC
:1015B000064AA3580133A35000E00025290005483E
:1015C00004F092F9280070BDE03B0110C001010059
:1015D0000C100000043C011070B506000C008023C4
:1015E0005B01994217D80D4BC058FFF73DFF051E10
:1015F00001D0280070BD0A4BF058FFF7ADFF00285E
:10160000F7D0064B074AF1588850F0502100FFF7F9
:101610002BFF0500EDE70025EBE7C04614100000A6
:101620001810000010100000002303624362806263
:1016300003E09A00002111500133072BF9DD7047B8
:1016400010B5030008001900FFF7C6FF10BD70B504
:1016500004001500836A1B6A072B06D8A16A0B6A6F
:101660005A1C0A629B005D5070BD2C20FFF7E8FFFA
:101670000600FFF7D9FFA36A5E62A662EEE701608B
:1016800000234360704710B50400FFF7F8FF200007
:1016900010BD03004268082A09D05A681968086A10
:1016A00082420CD29000405801325A607047026862
:1016B000506A186000225A600028EED1F6E7002038
:1016C000F4E7000070B5080014000B4911F09EFC0F
:1016D00000280ED104220949200011F009FD4542DD
:1016E0004541EDB2002805D12100054804F0FCF881
:1016F00000E00025280070BD203C0110243C0110B2
:101700002C3C0110F0B58FB00C00170089682848F8
:1017100004F0EAF8210010310CA8FFF7B4FF08220A
:101720000CA90AA803F08AFF002500260AA8FFF7E3
:10173000B0FF041E1AD0426801681E4804F0D4F8B5
:101740001D49206811F062FC00280AD01B4920685E
:1017500011F05CFC0028E9D12000FFF761FA0600D7
:10176000E4E72000FFF757FA0500EFE72A00310011
:10177000134804F0B9F801A901230B804E608D6075
:101780001048FEF7B4FF104AC8213800FFF7BCFC30
:101790000E4A0F493800FFF7BAFC0E4A0E493800CE
:1017A000FFF7B5FC0D493800FFF7C4FC0FB0F0BDE2
:1017B000503C01107C3C0110903C0110943C011005
:1017C000983C0110A02F01202C3A0110B43C0110CC
:1017D000BC3C0110C43C0110D03C0110E03C0110A5
:1017E00010B58300084A944663441C684022624056
:1017F000C02414408022520113431C60C000034BDC
:101800009C466044416010BD04C00140004001405E
:1018100080000B4B9C46604400290DD00823002A11
:101820000CD004221343026853400C221340802240
:1018300052011043036070470023F0E70022F1E7F4
:1018400004C00140002909D08000094B9C46604437
:1018500080239B0118430223036070478000044BE0
:101860009C466044C0239B01184302230360F4E7B5
:1018700004C0014070B5D0231B061B689D00094CB5
:101880002C59204207D19B002043064C18510D20B3
:1018900000F0C4F970BD044B044ACC21044801F0A7
:1018A0009FFEC0461CCB0120283E0110E83E0110DF
:1018B000543E011010B50400D0231B061B689B008A
:1018C0000A4A9B5818420BD00D2000F0BFFAD023D3
:1018D0001B061B6805499B005A58A2435A5010BD6D
:1018E000034B044AD621044801F07AFE1CCB0120A8
:1018F000983E0110C43E0110543E011007230340DE
:101900009B00C00899403C308000014BC15070479B
:1019100000400140F8B507000C0016001D00FFF75D
:10192000EDFFFB089B00ED18072038408000844045
:10193000002E04D080239B011D432C60F8BDC023E2
:101940009B011D432C60F9E710B5D0231B061B68D3
:10195000002B03D0024BFFF7DDFF10BD014BFAE770
:10196000304101400041014010B501238340D022A5
:101970001206936293610521FFF732FF10BD00004C
:10198000EFF3108072B6034B1B68002BFBD0BFF344
:101990005F8F70472C0100D0BFF35F8F024B002296
:1019A0001A6080F3108870472C0100D0F8B506004B
:1019B0000C001500FFF7E4FFE308F718F15C0722BD
:1019C0002240012393400B4205D1DBB20B433B7015
:1019D000FFF7E2FFF8BD2100280001F09BFEF0B503
:1019E00083B00600019114001F00FFF7C9FF00E05B
:1019F0000134BC420CD8E308F518F35C0721214000
:101A000001228A401A42F3D1D2B21A432A7001E06D
:101A100001246442FFF7C0FF002C02DB200003B06A
:101A2000F0BD019B002BF9D0089801F073FE000077
:101A300070B505000C00FFF7A3FFE308EE18EA5CA1
:101A400007210C400123A340134204D09A43327073
:101A5000FFF7A2FF70BD034B034A2C31034801F08E
:101A6000BFFDC0461C3F0110803F01103C3F0110EC
:101A7000034B1B6802201840431E9841C0B27047B8
:101A800000C00640002307E0054A9A189200BFF301
:101A90005F8F0021116001331F2BF5D97047C046BD
:101AA00040000034054A1078431CDBB21370172B3A
:101AB00002D9130010221A707047C0464412002049
:101AC000074B9B68103080001950BFF35F8FBFF346
:101AD0005F8F044B0021196082F310887047C04665
:101AE00000ED00E0240100D010B5091A081F0A4BD0
:101AF0009C466144094A914208D8C30706D4401065
:101B00004005400D064B184380B210BD054B064AF8
:101B10009921064801F064FDFC070000FE0F00005B
:101B200000E0FFFF903F0110D4410110C03F0110C1
:101B300010B5091A04394C08090B08D14905490D9B
:101B4000064A11430180064B2343438010BD054BD9
:101B5000054AA121054801F043FDC04600F0FFFF02
:101B600000F8FFFF00400110A8410110C03F011024
:101B700001238340034A10681840431E9841C0B2B5
:101B80007047C04600E100E0002904D0034B186014
:101B9000034B18607047034B1860FBE780E200E0DE
:101BA00000E100E080E100E010B50123834018006F
:101BB000FFF7EAFF10BD0000024B9B681030800069
:101BC000C058704700ED00E070B504000D00EFF361
:101BD000108672B60C4B1B68002BFBD0BFF35F8FD7
:101BE0002000FFF7E9FF094B984201D0A84205D138
:101BF000320029002000FFF763FF70BD044B054A47
:101C00007C21054801F0ECFC240100D0CD0100103E
:101C10001040011008420110C03F0110F0B5DE462F
:101C200057464E464546E0B589B0814601911500BC
:101C3000EFF3108A72B6744B1B68002BFBD0BFF316
:101C40005F8F724B0027DF57002F40DB7C00E419C9
:101C5000A4006F4824180622A2566C4B1A706D4BD4
:101C60009A684B4610339B00D35898461E001B1AA7
:101C70002F2B38D9684B98452FD105AE674B338051
:101C80007B009B46D8198000614B98464044023047
:101C90006349FFF729FF7080624BB380FF23B37164
:101CA000F571019B07935F44BF0047440ECE0EC7FA
:101CB00001231C43A046524641464846FFF700FF19
:101CC00009B0F0BCBB46B246A946A046F0BD564B93
:101CD000564ACD21564801F083FC564B534AD42135
:101CE000534801F07DFCC04340440C2102F0F6FF54
:101CF000002912D101239E43B34633000026DA792E
:101D0000AA4211D90621595600290CDB4A00521863
:101D100092001E003E4B9B18F1E7474B434AE021DF
:101D2000434801F05DFC1E00002E3BD005AB434A4A
:101D30001A80813A5A800623F3560293002B18DA50
:101D4000BD20000205AB9B469880029A9A71DD7116
:101D5000019A0792301D2100FFF7C6FEB080B771CF
:101D60007B00DB199B002A4FFF185B4607CB07C798
:101D7000A1E77800C0198000254BC0180430321D3F
:101D8000B388D90A1C2907D15B05591502314900CE
:101D90005118FFF7A9FED5E7294B2A4AA721244865
:101DA00001F01EFC05AE1D4B33807B000293D81959
:101DB0008000174A9046020042440392901C184942
:101DC000FFF792FE7080039A101D5946FFF78CFEB4
:101DD000B0801D4B5A464146521A524153431B0D87
:101DE000B371F571019A0792029B9C466744BF004C
:101DF00047440ECE0EC7114B5A461380813B538089
:101E000001231C43A04656E7240100D040CE012008
:101E10004812002000ED00E0CD01001000A1FFFFFE
:101E20007812002000BDFFFF48400110F041011072
:101E3000C03F01107040011098400110014800009F
:101E40000C410110E0410110AAAA0000F0B5CE46F5
:101E5000474680B583B006000D00EFF3108872B6D8
:101E6000564B1B68002BFBD0BFF35F8F544B9A6817
:101E700034001034A300D758524B9F4207D0AF42D2
:101E800000D199E00197504BFB1A2F2B09D94246FC
:101E900039003000FFF714FE03B0C0BCB946B046AD
:101EA000F0BD3000FFF764FE814600213000FFF7EF
:101EB0007BFEBFF35F8FFEF7D6F9002801D0844286
:101EC00011D10123019C9C430022A368AB4212D094
:101ED0000622A256002A0DDB53009B189B0022000D
:101EE000394CE418F1E72C21384B394AFF31394895
:101EF00001F076FB2200AB4257D106256557002D35
:101F000039DB6B005B199A002F4B9B189A68A26013
:101F1000DA79E27106229A56A2719B795BB2002BA4
:101F200010DABD200002A0806B005B199B00264ADE
:101F3000D318294A11789971157049463000FFF776
:101F400033FEA4E7201D6B005B199B001E4A9B1803
:101F50001A1D9B88D90A1C2907D15B055B15023322
:101F600059005118FFF7C0FDDDE71C4B1C4AA721A3
:101F7000184801F035FB002812D1002A0ED0FF23AB
:101F80009371184B9380144A1378A371164B0E4922
:101F9000641A644163431B0D1370CEE7094FF2E7E7
:101FA000201D1249FFF7C4FDC7E76021104B084A06
:101FB000FF31084801F014FB024F68E7240100D00C
:101FC00000ED00E0CD010010481200202441011076
:101FD000C0410110C03F011040CE01200C41011052
:101FE000E041011000BDFFFFAAAA000082120020FC
:101FF0004841011070B50400012606432D4BF31A29
:102000002F2B28D8FEF72FF900282BD0EFF3108CB8
:1020100072B6294B1B68002BFBD0BFF35F8F274D97
:1020200022002449521A524155432D0D6DB2244BC2
:102030009B6880001B58B3421BD00022032A32D871
:1020400053009B189B001B49CB189B795BB2AB429A
:102050001FD00132F2E7C2211A4B1B4A49001B482C
:1020600001F0BEFA88211A4B174AFF31174801F0D8
:10207000B7FA134B9B68174A1A50174B1A78A2717C
:102080001D70BFF35F8F0C4B00221A608CF3108819
:1020900070BD08005300991889004118FF268E7101
:1020A0000E4A8A80E9E7CC210D4B074A49000748D0
:1020B00001F096FA48120020240100D0AAAA0000DC
:1020C00000ED00E0504101108C410110C03F0110B3
:1020D00078410110CD01001040CE012000BDFFFF6E
:1020E000844101100022044B02E0044902C3013282
:1020F000072AFAD97047C04600E400E0808080805B
:10210000024B9C46614489000160704740000034E6
:1021100070B505000C00080000F0CCFD200000F0B8
:10212000B1FE0849200000F0F1FDFFF7BBFC064BB3
:102130009C466044800068602C75A400034BE55009
:1021400070BDC04655240010400000340CCB012067
:102150000A4B1A68EFF3108172B61368002BFCD09B
:10216000BFF35F8F054B1B68BFF35F8F00221A60C0
:1021700081F3108840BF00200021704740CD01202E
:1021800010B5002922D003681B7B99421ED8174B3B
:102190009C466144090183689C4661440C68496817
:1021A000002A19D003681B7B9A4215D883680F4810
:1021B0008446624412019A18106853680200012094
:1021C0008B4201D80ED00020C0B210BD084B094A86
:1021D0003B21094801F004FA054B064A3B21064819
:1021E00001F0FEF9A242EFD8EDE7C046FFFFFF0F76
:1021F00074420110384501103842011010B5002911
:102200001ED0037B99421BD84B005B18033B04682C
:10221000A4466344002919D0002A1DD0914221D040
:10222000002A25D0047BA24222D8046850008018DE
:10223000033820188170197800291FD11A7010BD39
:10224000104B114A6821114801F0CAF9104B114A8C
:102250006F310E4801F0C4F90F4B0E4A70210B4844
:1022600001F0BEF90D4B0B4A7121084801F0B8F995
:10227000044B054A6821054801F0B2F941701A7013
:10228000DDE7C046A8420110A4450110C442011078
:1022900010430110804501101C4301102843011018
:1022A00070B506000D001400002914D0002A14D0C7
:1022B000806873689847002806D022002900300003
:1022C000FFF79CFF280007E02A0021003000FFF7FD
:1022D00095FF200000E0100070BD0800FCE7000042
:1022E000F0B583B00500009201930AAB1C780BABEC
:1022F0001F78002C26D003685A7B944207D1012313
:10230000002B19D1002C3BD1200003B0F0BD002CD4
:102310000CD01A7B944209D81A6863001B19033B3E
:10232000D3189B78002BEBD00123E9E73E4B3F4AC3
:1023300068213F4801F054F93E4B3F4A65213F4830
:1023400001F04EF903689C7B002CDBD012D01A7B85
:1023500094420FD862001219033A19688C466244FD
:1023600051789973002900D1D97300239370537069
:102370001370C7E72C4B2D4A68212D4801F030F926
:10238000002C3AD02B681B7B9C4236D82C4BE31890
:102390001B01AA6894466344009A1A60019A5A6025
:1023A000089A9A60099ADA602E68002C2BD030D0F7
:1023B000337B9C422DD863001B19033B3268944643
:1023C000634400229A705A701A70717B22003000A8
:1023D000FFF766FF7073844200D095E7287D009A6E
:1023E000019B00F0DBFC061E01D0002F17D00C9BD8
:1023F000002B00D188E71E7086E7124B124A3B2162
:102400000E4801F0EDF8114B114AA521084801F0E2
:10241000E7F8054B054A6821054801F0E1F828680E
:10242000210000F0E3FEE2E7A8420110A4450110FC
:10243000C442011040430110B04501103842011060
:10244000FFFFFF0F744201103845011034420110A4
:1024500094450110F0B5DE4657464E464546E0B578
:102460008BB00990002308938200B24BD6583700F6
:1024700032E0B14BB14A3F21B14801F0B1F8B14B64
:10248000B14A3B21B14801F0ABF8B14BB14A8C21C4
:10249000AE4801F0A5F8B04BAE4A9021AB4801F030
:1024A0009FF8A84BAD4A4021A84801F099F82A6846
:1024B0006B68099800F072FC00239A4698467B6886
:1024C000BFF35F8F00221A6086F310884346002B0B
:1024D00051D1002800D126E100F0F8FB02000B1ECC
:1024E000C7DB00200021069007917868EFF3108683
:1024F00072B601680029FCD0BFF35F8F3968884647
:102500004C7B002C32D0BAD0097B8C42B7D894498E
:1025100065182D01B9688C46654428686968801A79
:1025200099410029C3DC01D10028C0D100214046D7
:1025300000F052FEA042A8D12A686B680692079369
:10254000AB689846EB689A464346002BA3D0002C14
:10255000A7D03B681B7B9C42A3D8631EFA68D35C60
:1025600008931B02184338610020A8E700239A460D
:1025700098460020A3E7089B1B0223439946514637
:102580001800C04705000E007A68EFF3108B72B692
:10259000136859424B41D9B2002BF9D1BFF35F8F79
:1025A000002E26DB002E52DD3B69002B53D04B451D
:1025B00072D100F08BFB02000B1E73DB01001800D0
:1025C00052197341984202D804D1914202D9012292
:1025D0005242D317002B6BDB002104910131039190
:1025E000029451460191414600913800FFF778FE70
:1025F00049E03B69002BD5D04B451CD1069A079B7F
:1026000010001900521BB341994202D804D19042E4
:1026100002D901225242D317002B12DB0021049170
:1026200001310391029451460191414600913800D5
:10263000FFF756FE27E04B4B464A9F21434800F0E8
:10264000CFFF3D4B3D4A3F213D4800F0C9FF002EE2
:1026500001D1002DA8D13A68002C45D0537B9C4273
:102660002CD1012100293FD1D37B002B42D1D4733F
:10267000002C52D03B681B7B9C424ED8FA68013C30
:10268000135D0133135500233B617A68BFF35F8FFD
:1026900013608BF310881FE7324B2E4AA2212B4880
:1026A00000F09EFF244B254A3F21254800F098FF6B
:1026B000214B224A3F21224800F092FF002C0DD0EE
:1026C000137B9C420AD863001B19033B10688446A5
:1026D00063449B78002BC5D00121C3E7224B234ADA
:1026E0006821234800F07CFF224B234AF621204832
:1026F00000F076FF002B0AD0117B8B4207D85900DF
:10270000CB18033B11688C4663445C70AFE7164BF3
:10271000164A6821164800F063FF0A4B0F4A402111
:102720000A4800F05DFF0BB0F0BCBB46B246A946BC
:10273000A046F0BD0CCB01206843011004450110F8
:1027400084430110744201103845011038420110D1
:10275000CC4301101C450110E44301105C450110FD
:10276000FFFFFF0FF0430110A8420110A445011024
:10277000C44201102C4401107045011010B50A4BE1
:102780005B68002B04D00A210848FFF7B9FC10BD94
:10279000054C2300064A1021206800F03DFC03216F
:1027A0002000FFF7B5FCEEE79012002040CD01209D
:1027B0008121001010B5064B5B68002B01D0044846
:1027C00010BD044B044A5C21044800F009FFC046D8
:1027D000901200205044011044450110384201106D
:1027E000F0B5DE4657464E464546E0B58BB08046CE
:1027F00016001F00149B9A46159B994616AB1B7832
:102800009B461F2302AA9446634400221A7032E0BA
:10281000002809D042461268127B904204D8421E1A
:102820004146C9688A5C48E0434B444A40214448D9
:1028300000F0D6FE0798002B75D05B46002B72D0B7
:102840004946D04704000D0003000B4300D171E05E
:10285000002946DB00F03AFA06000F1E55DB361958
:102860006F41B94202D804D1B04202D90126764262
:10287000F717002F4FDB43465A68EFF3108472B608
:10288000136859424B41D9B20791002BF8D1BFF3DD
:102890005F8F1F3302AA944663440493002303937B
:1028A00002934B4601935346009332003B0040464F
:1028B000FFF716FD031EABD1020041464968BFF386
:1028C0005F8F00250D6084F31088002B29D01F2313
:1028D00002A98C4663441B78002BABD11202104333
:1028E000A9E732003B00361BAF41BB4202D804D1FE
:1028F000B24202D901267642F717002FBBDA114BFC
:10290000114A3F21114800F06BFE0E4B0E4A3F2149
:102910000E4800F065FE0B4B0B4A3F210B4800F0C0
:102920005FFE012040420BB0F0BCBB46B246A94658
:10293000A046F0BD0798F6E7744201105C4501100F
:10294000384201106843011004450110844301100E
:10295000F8B504004268EFF3108572B61368584268
:102960004341D8B2002BF9D1BFF35F8FCBB22268BD
:10297000567BB3421BD10120002848D020698842F1
:102980002BD0090AC9B2002B2ED02068007B8342CD
:102990002AD8581EE668305C88422BD00020636835
:1029A000BFF35F8F00221A6085F31088F8BD002BFB
:1029B0000DD0167BB3420AD85E00F618033E1768A6
:1029C000BC466644B678002ED6D00120D4E7134B1F
:1029D000134A6821134800F003FE8521124B134A65
:1029E0004900134800F0FCFD124B134A40211048E7
:1029F00000F0F6FD1900100000F0F8FB0028CED121
:102A000012210E4B094AFF31094800F0E9FD236904
:102A10008B42C4D100232361C1E7C046A842011004
:102A2000A4450110C442011074440110EC4401108B
:102A300038420110744201105C45011098440110A5
:102A4000F0B587B006000F00FDF70DFC00281FD180
:102A500006246442E517A4197D41BD4202D803D182
:102A6000B44201D900240025002D14DB04940595FF
:102A700000F02CF902000B1E13DBA41A9D41002D5F
:102A800017DC14D03000390000F02CF907B0F0BD8D
:102A9000234800F03FFE234B234A3F21234800F008
:102AA0009FFD204B204A3F21204800F099FD002C3B
:102AB000E8D0FFF77FFE0023029301931C4B0093A5
:102AC000049A059BFFF78CFE002818DADAE700234A
:102AD00000E00023002BD5D1164B1A68EFF31081CC
:102AE00072B61368002BFCD0BFF35F8F114B1B68CD
:102AF000BFF35F8F00221A6081F3108820BF049912
:102B0000059A0D4B5B6A9A42E3D80B48806A88426B
:102B100003D29A42DBD00123DCE70123DAE7C04687
:102B20009C440110684301100445011084430110C6
:102B30005121001040CD012000400540F8B50400AF
:102B40000D0000F0C3F802000B1E10DB200029006E
:102B5000801859418B4202D804D1824202D9012007
:102B60004042C117002908DBFFF76AFFF8BD064B9A
:102B7000064A3F21064800F033FD034B034A3F213C
:102B8000034800F02DFDC0466843011004450110C4
:102B90008443011010B5FA2292000023002102F0B4
:102BA0003BFCFFF7CBFF10BD70B584B006000C00F6
:102BB000FFF700FE002302930193194B00933200AC
:102BC0002300FFF70DFE051E11DD20BFFFF7F2FD0C
:102BD0002900FFF7BDFE134B5B6A9C421BD8114ACC
:102BE000926AB2421AD29C4213D0012014E00D4BDB
:102BF0005B6A9C4209D80B4A926AB24207D29C4255
:102C000001D0012008E0002006E0002004E00120BF
:102C100002E0002000E0002004B070BD0120FBE7CE
:102C2000512100100040054070B5EFF305833F20AF
:102C300018401038EFF3108C72B6194B1B68002B3C
:102C4000FBD0BFF35F8F012319008140154A516308
:102C5000154A12781400C440234214D0114B5C6A08
:102C60008300124D5B599C4206D38300104C1B59C4
:102C70008A430D490A7007E00A4A031D9B009958D0
:102C80009950002300E00023BFF35F8F044A002126
:102C900011608CF31088002B00D0984770BDC0469F
:102CA000280100D00040054047CE012058CD01202A
:102CB000C81E012010B50100024A0348FEF776FE47
:102CC00010BDC046C845011038CE0120044B5B6AD8
:102CD000034A906A1900536A9942F9D17047C04675
:102CE00000400540084B5B6A01E0074B5B6A8B4282
:102CF000FBD301E0044B5B6A8B4203D1024B9B6A1E
:102D00008342F7D37047C0460040054070B50400C9
:102D10000D00EFF3108672B61B4B1B68002BFBD027
:102D2000BFF35F8F002D1CD02000FEF745FF174B2F
:102D300083420BD019002000FEF746FF012120003E
:102D4000FEF732FF0123A340114A1360A400114B88
:102D5000E550BFF35F8F0C4B00221A6086F310889A
:102D600070BDA2000B4B0021D1500122A2400A49A4
:102D70000B7893430B7005492000FFF767F800219B
:102D80002000FEF711FFE4E7280100D0292C0010F5
:102D900038600540C81E012047CE0120F0B5DE4650
:102DA00000B584B00400150001921E000293FFF7E5
:102DB0008DFF03958E4202D84ED185424CD9EFF358
:102DC000108B72B6274B1B68002BFBD0BFF35F8FB5
:102DD000254A17780125A540EBB23B431370234BDE
:102DE0005D63221D92000199D150A20020490298F2
:102DF00050501B6A2B4212D11C4B1B6C2B4208D02B
:102E00000020BFF35F8F174B00221A608BF31088EE
:102E100023E0184B184AC121184800F0E1FBFFF7E6
:102E200055FF8E4214D802D1039B834210D80E4B1B
:102E30001B78BB420ED00D4B1D625D631F2004400A
:102E40000123A3400E4A1360074B1F701E38D8E7BA
:102E50000020D6E70120D4E7012004B080BCBB46A7
:102E6000F0BDC046280100D047CE012000400540FB
:102E700058CD0120EC4501105446011010460110B8
:102E800080E200E0EFF3108C72B60B4B1B68002B56
:102E9000FBD0BFF35F8F01238340084A13620849C8
:102EA0000A789A430A70BFF35F8F034B00221A60BF
:102EB0008CF310887047C046280100D000400540C0
:102EC00047CE012010B500291ED0037B99421BD8A4
:102ED0004B005B18033B0468A4466344002919D0E7
:102EE000002A1DD0914221D0002A25D0047BA24285
:102EF00022D804685000801803382018817019788F
:102F000000291FD11A7010BD104B114A68211148B9
:102F100000F066FB104B114A6F310E4800F060FB69
:102F20000F4B0E4A70210B4800F05AFB0D4B0B4A19
:102F30007121084800F054FB044B054A68210548FC
:102F400000F04EFB41701A70DDE7C046A842011048
:102F500060470110C4420110104301104C4701109A
:102F60001C4301102843011070B506000D00140029
:102F7000002914D0002A14D080687368984700286C
:102F800006D0220029003000FFF79CFF280007E050
:102F90002A0021003000FFF795FF200000E010001C
:102FA00070BD0800FCE7000010B500234373013337
:102FB0008373037BC3730123027B9A4214D9002BD2
:102FC0000CD0027B934209D85A00D218033A016808
:102FD0008C4662440133DBB25370EDE70B4B0C4A75
:102FE00068210C4800F0FCFA002A09D0924207D868
:102FF000016853009A18033A8A180023537010BDD1
:10300000024B034A6821034800F0EAFAA842011083
:1030100060470110C442011010B501734260836023
:10302000FFF7C2FF10BD000070B50400081E00D1FC
:1030300070BD002934D0237B994231D84B005B18F6
:10304000033B2268944663445A78002AF0D02DD07E
:10305000237B9A422AD853009B18033B21688C4655
:1030600063445D7800215970002825D0237B984265
:1030700022D843001B18033B21688C46634400217F
:10308000597001002000FFF76FFF060029002000A3
:10309000FFF7CAFF020031002000FFF765FFC7E716
:1030A000084B094A6821094800F09AFA054B064A7C
:1030B0006821064800F094FA024B034A682103484D
:1030C00000F08EFAA842011060470110C4420110BE
:1030D00070B505000C001600002928D02DD0037B08
:1030E00099422AD84B005B18033B0268944663441C
:1030F0005A78002A27D19A78002A2AD11978FFF71E
:1031000093FF0300002E03D0EA7B002A27D1EC7343
:10311000002B37D1002C49D02B7B9C4246D82B6802
:1031200061000C19033C1C190023637070BD224B15
:10313000224A3821224800F053FA224B224A6821C1
:10314000224800F04DFA224B1C4A3A211C4800F05C
:1031500047FA204B194A3B21194800F041FA002A4E
:103160000AD0297B8A4207D851008A18033A296875
:103170008C4662445470CAE7124B134A68211348C4
:1031800000F02EFA002B0BD02A7B934208D8430084
:103190001B18033B2A689446634400229A70B9E7DF
:1031A000084B094A6821094800F01AFA054B064AFB
:1031B0006821064800F014FA7046011038470110E3
:1031C00078460110A842011060470110C442011066
:1031D000B4460110DC46011070B504000A00457BBE
:1031E0002900FFF775FF6073280070BD70B50400FB
:1031F000002967D0437B8B420ED0002911D0037B7E
:1032000099420ED84B005B18033B0268D0188378B4
:10321000002B0CD1002056E00121FFF7DDFF01203B
:1032200051E0294B294A6821294800F0D9F9002B9F
:1032300020D0227B93421DD85A00D318033B22682A
:10324000D2182568EB5C8B421AD0002B1BD0227B56
:10325000934218D85A00D318033B2268D2185378E7
:103260008B4216D0002BF0D11A4B1B4A67211B480A
:1032700000F0B6F9144B154A6821154800F0B0F972
:103280004378137007E0104B104A6821104800F093
:10329000A7F9437853700023837043700122200004
:1032A000FFF716FF0200617B814205D02000FFF787
:1032B0005BFE6073012006E0094B074A6D21074859
:1032C00000F08EF9002070BDA84201106047011087
:1032D000C4420110844101102047011078460110BA
:1032E00000470110F8B504000CE0E7899F421AD1AD
:1032F000002A38D02368BFF35F8F00251D6086F356
:10330000108820BF2568EFF3108672B62B68002B5B
:10331000FCD0BFF35F8F25896389EB1AE5D5E78978
:103320000137DB19E1E7BD4217D8A289554363682D
:10333000581902F083F9238901339BB2E289934241
:1033400000D9002323812368BFF35F8F00221A6016
:1033500086F3108840BF0120F8BD074B074A1921AA
:10336000074800F03DF92368BFF35F8F0021196023
:1033700086F310881000EFE76C470110C447011076
:103380008847011070B5040008000BE0002B1AD12B
:10339000002A39D02368BFF35F8F0021196086F3BC
:1033A000108820BF2168EFF3108672B60B68002BDF
:1033B000FCD0BFF35F8F238965895B1BE6D5E1896C
:1033C00001315B18E2E7E3899D4217D8A289554392
:1033D0006368591902F032F9638901339BB2E289BB
:1033E000934200D9002363812368BFF35F8F0022DB
:1033F0001A6086F3108840BF012070BD074B084A51
:103400001921084800F0ECF82368BFF35F8F002112
:10341000196086F310881000EFE7C0466C47011072
:10342000C44701108847011070B504000D00160054
:103430001900FEF765FE701C290002F0C1F86060FB
:10344000E681A58100232381638170BD10B5002230
:10345000FFF748FF10BD10B50022FFF793FF10BD26
:1034600010B50400FEF71EFB01002000FEF748FE29
:10347000FF232371BFF35F8F10BD10B50400FEF76B
:1034800011FB01002000FEF73BFEFF232371002308
:103490006371BFF35F8F10BD70B504000D0006208F
:1034A00000F058FAC000290001F018FCC60908D045
:1034B0000E4B9E4217D87F23184001303500460836
:1034C00000E001256562A6622C348020800104435F
:1034D00000232360062000F03DFA8000A90189192D
:1034E00001F0FCFB70BD0026014DEBE7FEFF000084
:1034F000FFFF0000002909D00A22064B9C466044C9
:10350000434258414000044BC2527047802252004F
:10351000F3E7C0460080FCBF8CCD012070B50500EC
:103520000C00062000F016FA002829D0164B9D4208
:1035300027D08022D203154B1A60154B1A60154B09
:103540009B6811009943FAD100212800FFF7D2FFB0
:1035500021002800FFF7A0FF2C002C34E96A60222C
:103560004A406E21114080225201224311600A4BD1
:103570002B6380239B01234310221A600323AB6437
:1035800070BD80221204D6E70080034000E00040B6
:1035900000F0004000C000400103000000BEFDE755
:1035A00003000A4A1268002A08D0084A1068C318A3
:1035B000074A9A4206D3054A13607047034A0549F1
:1035C0001160F2E701204042F7E7C046D430012005
:1035D0000000042048CE012010B5FFF7DFFF0000F7
:1035E00010B582B00C001900002A0CD0084B002A3C
:1035F0000BD00192009323000200064802F074F9F8
:103600000120FFF7CBFF044BF1E7034AF1E7C04687
:103610006C4801107C480110F039011070B52B4B3B
:103620002B4A1A602B4B2C4A1A602C4B9A682A4B57
:103630009343FAD12A4C01E008CC9847294B9C428D
:10364000FAD300F007F9234B274A1A60234B9B68F3
:10365000DB43DB01FAD1254B40229A675A671A6790
:10366000DA66234C09E0234B234A83212348FFF7E2
:10367000B7FF2000FFF7F4FE0834214B9C4209D22B
:103680002368002BF5D0012BEDD12000FFF7F5FECC
:103690000834F2E71B4CA1681B4DC022280001F042
:1036A000CDFFA560FCF7DFFD002800D000BEFEF7CF
:1036B000E9F9FEF717FDFFF761F8144C01E008CCBB
:1036C0009847134B9C42FAD370BDC04600E00040BF
:1036D000BFCDFBFE00F00040FE7F3C0000C000407C
:1036E000581B0020681B0020FFFFFF0100F0014075
:1036F000481B0020AC48011030490110CC48011093
:10370000581B002000ED00E000000020681B002096
:10371000801B00200FB400B583B0084802F0B2F857
:10372000049B002B07D005A90191180002F0BAF8FC
:10373000034802F0A7F80120FFF730FF10490110FD
:103740008860011010B50148FFF7E4FF204901101F
:10375000F8B5DE4657464E464546E0B505000F0033
:1037600092460A9A93424ED31A0E91461E020A9A24
:1037700000233000494601F0F3FA80466C006419DA
:10378000A4002F4B9C4664446368834200D260606F
:103790002B1FDBB29B46012B3BD9C0239B0123434C
:1037A000802212011A60AB00264A9958002905D0E0
:1037B000506901F093FA01300138FDD153465A01A6
:1037C00023685A40E0231A4080235B0123431A6098
:1037D0005A46012A28D980239B01234380221201C3
:1037E0001A6043466360424600233000494601F0B8
:1037F000B7FAAD00134B58510120F0BCBB46B2469E
:10380000A946A046F8BD104B104A2D211048FFF7DD
:10381000E7FE012FC1D1C0239B01234303221A607D
:10382000A368DB07FCD5C9E72168794003220A4079
:103830001A60A2680123BB401342FAD0CBE7C0460E
:1038400000800040D4200120404901109C49011013
:103850005449011030B583B00C2000F021F9FEF777
:1038600007F900280DD0002304E099002D4A2E48C6
:1038700088500133092BF8D92A4B2C4A5A6203B0DD
:1038800030BD2B4B00229A6700F012F9294B012220
:103890001A60274B5B6C012BFBD1274B03221A606C
:1038A000234B9B6B012BFBD1013300930433234A41
:1038B0000121234800F054F805230093214A0121F7
:1038C000214800F04DF8214B0093002202210420F2
:1038D000FFF73EFF1E4D00952B0000220121052021
:1038E000FFF736FF104C0094230000220021072030
:1038F000FFF72EFF00942300002200210820FFF78D
:1039000027FF0A4B00932300002200210920FFF724
:103910001FFF00952B00002200210620FFF718FF53
:10392000ADE7C046D4200120006CDC021BB70000CC
:10393000008000403CB0004030B00040002F68598B
:1039400000800240008C864700C00240001BB70088
:10395000405973078000014BC0587047D4200120A4
:10396000F0B5C64600B504000F0090461D000C20BF
:1039700001F0B4F906003D4A42443D4B9A4243D817
:1039800043011B1A9901C91AC90009188901404647
:1039900001F0A4F90200103A98235B009A4239D84A
:1039A0006B1E062B3CD8069B013B062B38D8069B8A
:1039B0009D423BD343461A09B2423DD32D04069B98
:1039C0001E0335432368002B3CDB2A4B9C424AD024
:1039D00080225201284B1A60284B1A60284B9B68A2
:1039E00011009943FAD12760A060231DC0229201E3
:1039F0001A43212313602368002BFCDAE5600823B7
:103A0000136080BCB846F0BD1E4B1F4A11211F48F1
:103A1000FFF7E6FD1E4B1C4A19211C48FFF7E0FD8D
:103A20001C4B194A1C211948FFF7DAFD1A4B164A9C
:103A300022211648FFF7D4FD184B134A25211348BD
:103A4000FFF7CEFD22683F231340BB42BDD1A368E0
:103A50001B051B0D8342B8D1E368EE22D20213404E
:103A6000AB42B2D1CDE780229201B3E780E84BD3DD
:103A700080F8A93200C0024000E0004000F00040A1
:103A800000C00040AC490110E84A01100C4A011086
:103A90004C4A0110684A0110B44A0110CC4A011086
:103AA00080239B000343014AD36270470080054096
:103AB000064BAA2212011A602F22DA60044B054A33
:103AC0001A60024B5B68002BFBDA70470040024033
:103AD0000060024000B0FA00704710B5002802D024
:103AE0000B684968984710BD0100002007E083007B
:103AF0001B185B00501C08601078C01830380A682A
:103B00001378303BDBB2092BF1D97047F0B5DE46B4
:103B100057464E464546E0B583B093461F000C9B82
:103B20009A460D9C0E9B99460F9B9B0703D0B84667
:103B30000F00060022E00192A34688464E46B94691
:103B40000700B44207D2551C4B4641462020B847D7
:103B500001342A00F5E73D004F465C46019B9B4639
:103B6000B1464646B84637002E0007E0013C551CDA
:103B70005346185D43463900B0472A00002CF5D162
:103B800035003E0047460F9B9B0707D4100003B04B
:103B9000F0BCBB46B246A946A046F0BDB0464E4674
:103BA000B9462F005D46531BB342EFD2541C4B461F
:103BB00041462020B8472200F5E7F0B5CE464746FB
:103BC00080B585B0944698460C9D0D9C0EAB1B7835
:103BD0009946109A119B129EB7071CD4002B0CD04B
:103BE000F7070AD54F46002F02D10C37374204D0D1
:103BF000013B02E030272F550134944201D21F2CA3
:103C0000F8D9F70707D59C4205D21F2C03D83027D7
:103C10002F550134F5E7F70615D5770505D4002CA7
:103C200003D0944224D09C4222D00F9A102A2BD049
:103C30000F9A102A30D00F9A022A35D01F2C02D8A2
:103C400030222A5501341F2C05D84A46002A31D08B
:103C50002D222A5501340396029301940095434680
:103C60006246FFF753FF05B0C0BCB946B046F0BD91
:103C7000621E012C06D00F9F102F01D01400D4E734
:103C8000023CD2E71400D0E7B206D1D41F2CCFD823
:103C900078222A550134D1E7B206CCD51F2CCAD8D8
:103CA00058222A550134C9E71F2CC7D860322A553B
:103CB0000134C3E7720703D52B222A550134CAE722
:103CC0003207C8D520222A550134C4E7F0B5DE46B4
:103CD00057464E464546E0B593B081468A4608921F
:103CE00009931CAB10CB1B789B461E9D219B9846CD
:103CF000002C03D1102342469A4390468023DB00D8
:103D000046461E4042461A4212D0002C22D00026BF
:103D10000EE03033D9B2771C0AAB99552900200048
:103D200000F0DCFFAC4216D31F2F14D83E00040075
:103D30002900200000F0D2FFCBB2092BE9D942467E
:103D4000920605D54121C918C9B20A39C9B2E2E7BC
:103D50006121F8E7270043460693209B05931F9BAC
:103D6000049303955B46029301970AAB0093099B6A
:103D7000089A51464846FFF720FF13B0F0BCBB46F7
:103D8000B246A946A046F0BDF0B5DE4657464E46BF
:103D90004546E0B595B0089009910A920B931E9E96
:103DA0001F9C20AB1B789B46229B9946239D269BFC
:103DB0009A463300234303D1103352469A43924626
:103DC0008023DB0057461F4052461A4219D0330069
:103DD00023432DD0002714E03033DAB27B1C984601
:103DE0000CABDA554A462B003000210000F0B8FF3A
:103DF000A5421FD819D043461F2B1BD847460600A3
:103E00000C004A462B003000210000F0A9FFD3B27D
:103E1000092BE1D95246920605D54122D218D2B2D9
:103E20000A3AD2B2DAE76122F8E7B145E3D901E014
:103E30000023984653460693259B0593249B0493A1
:103E40004B4603935B460293434601930CAB0093AE
:103E50000B9B0A9A09990898FFF7AFFE15B0F0BCC2
:103E6000BB46B246A946A046F0BD0000F0B5DE460E
:103E700057464E464546E0B591B083468A460C9279
:103E800098461A9C08941B9D099522002B0020003F
:103E9000290001F0E4F9002800D0E5E001225242B7
:103EA000D74B2000290001F0D5F9002800D0DBE035
:103EB00001225242D34B2000290001F0B5F900281D
:103EC00000D0D1E000220023089E3000099D290087
:103ED00001F0AAF9002800D0DDE0089809990690C1
:103EE00007918023DB001E9A1A400D921E9A1A42F7
:103EF00001D106231C930698079904000D000A00BF
:103F00000600024300D1D1E0080D4005400DBE4C33
:103F1000A44660440A03120BBC4B13431F0001F07C
:103F2000B1F9BB4ABB4B01F040F9BB4ABB4B01F0B6
:103F30001DF904000D000022B94B3000390001F0DA
:103F400010F9B84AB84B01F030F902000B0020001C
:103F5000290001F00BF901F0ADF9814601F092F969
:103F600004000D00B14AB24B01F01FF90022B14B21
:103F700001F0FCF801F09EF90600AF4AAF4B2000BB
:103F8000290001F012F904000D00300001F07AF967
:103F9000AB4AAC4B01F009F902000B0020002900EC
:103FA00001F0DFF804000D0002000B0001F0FDF845
:103FB0000A900B91A44BF31800261F0522002B003A
:103FC0002000290001F0D2F80E900F9122002B0062
:103FD00000208021C90501F0C4F804000D00002272
:103FE0009A4B0A980B9901F0C6F80022984B01F001
:103FF000BDF802000B000A980B9901F0BCF80022F2
:10400000944B01F0B3F802000B000A980B9901F0F1
:10401000B2F802000B002000290001F0A7F802000E
:104020000B000E980F9901F0A6F80022774B01F0D3
:104030009DF832003B0001F0B8F806000F000400C4
:104040000D00069A079B01F005F9002830D00123E6
:104050005B429C46E14400227D4B3000390001F078
:104060008AF804000D0023E01E9B04931D9B03931C
:104070001C9B0293089A099B0092019343460C9A59
:104080005146584600F0FCF811B0F0BCBB46B246B1
:10409000A946A046F0BD0023002406930794069687
:1040A00080231B069C46654407951AE70023994622
:1040B0004B466333C62B1ED804261E9B1B0526D5F4
:1040C0002B0023430FD0644A644B0698079901F0F4
:1040D000B9F8002879D00022614B0698079901F0C1
:1040E000A3F8002871D01C9B4B4506DD4A46981A60
:1040F000431E1C9303E00526DFE700231C93802367
:10410000DB001E9A1A431E920026002399461D9B2F
:104110009E4264D29F1B02231E9A1A400A921E9A44
:10412000134202D0002E00D000274B46002B07D0B0
:1041300022002B000698079901F01DF806900791C0
:10414000002200230898099901F06EF8002848D150
:10415000444B1E9A1340049303971C9B0293069BA7
:10416000079C0093019443460C9A5146584600F030
:1041700087F8002E00D187E71E9B9B063DD545257D
:10418000441C4346020051462800D8474B46DA17E4
:104190009B18534005220592013E0496002203928B
:1041A0000A3202924A46D00F019000934346220001
:1041B00051465846FFF78AFD0A9B002B00D163E762
:1041C00002005F460C9E1D9D54E01C9B002B9ED060
:1041D0000D9B002B9BD01C9B013B1C9397E700275A
:1041E00099E7069C079D220029008020000684464E
:1041F00061440B0006920793AAE76525C0E7C04615
:10420000FFFFEF7FFFFFEFFF01FCFFFF0000F03F2C
:10421000FB799F501344D33FB3C8608B288AC63FB5
:104220000000F83F61436F63A787D23F71A379090C
:104230004F930A400000E03F1655B5BBB16B0240FA
:10424000EF39FAFE422EE63FFF03000000002C404B
:1042500000002440000018402D431CEBE2361A3FBA
:1042600080842E41FFF7FFFF541C43465146202017
:10427000B8472200931BAB42F6D3100004E7C046B8
:10428000F0B5DE4657464E464546E0B595B0069039
:10429000079193469946209F1E9A1F9B1000190074
:1042A00000F0DDFF002831D101225242BF4B1E98A1
:1042B0001F9900F0B9FF002837D101225242BC4BB0
:1042C0001E981F9900F0C6FF00283DD10022B94B6F
:1042D0001E981F9900F0BEFF002850D10022B64B57
:1042E0001E981F9900F0A0FF002848D1002200234B
:1042F0001E981F9900F098FF002850D1002398467F
:10430000229B5B0500D4B6E0002458E0229B039377
:10431000219B029303230193A84B00934B465A46DB
:1043200007990698FFF7F2FB0EE1229B0393219B6E
:10433000029304230193A24B00934B465A460799DC
:104340000698FFF7E3FBFFE00423229A1A40229924
:104350000B4210D09B4B002A0FD0042222990391CC
:1043600021990291019200934B465A46079906986B
:10437000FFF7CCFBE8E0944BEDE70322EEE7229B4E
:104380000493219B039302971E9B1F9C009301940F
:104390004B465A4607990698FFF768FDD4E01E9AE7
:1043A0001F9B0020002100F0DCFE1E901F910123C6
:1043B0009846A5E70CAB30221A55013F01341F2C5B
:1043C00001D8092FF6D81E981F9900F073FF050039
:1043D00000F058FF02000B001E981F9900F0C1FE6C
:1043E000FA007A4B9B181A685B680A920B9300F0EC
:1043F000DCFE0890099100F081FF060000F03EFF0E
:1044000002000B000898099900F0ABFE0890099192
:1044100000226F4B00F01EFF00282ED00136300026
:1044200000F02CFF02000B000A980B9900F002FF2D
:10443000002801D001350026002F2CD1280000F0E3
:1044400021FF02000B001E981F9900F08AFE060053
:104450000F0000225E4B00F0E7FE002846D100224C
:104460005B4B3000390000F0F5FE00283ED1EB0731
:104470003CD501353AE0062746E70022544B089820
:10448000099900F0D1FE0028D6D1002E01D0F30703
:10449000D2D50136D0E7AA461F2C11D8013F0A21F8
:1044A000300000F01BFC651C30310CAB19550A21A3
:1044B000300000F013FC092E0ED906002C00EBE7AB
:1044C00055461F2C0CD87B1E002F09D00CAA30217A
:1044D00011551F000134F4E72B0055461C00F0E78E
:1044E0001F2C03D80CAB2E221A5501341F2C10D8C8
:1044F0000A21280000F0CAFB661C30310CAB1955AC
:104500000A21280000F0C2FB051E01D03400EDE7AF
:1045100034000323229A1340012B1CD01F2C06D8F1
:104520004346002B32D00CAB2D221A550134229B6E
:104530000393219B029301940CAB00934B465A4684
:1045400007990698FFF7E2FA15B0F0BCBB46B246F1
:10455000A946A046F0BD219B002B13D04346002B5B
:1045600002D10C3313420FD0219B013B2193190040
:1045700003E00CAB30221A5501348C42CED21F2CF2
:10458000F7D9CBE72199F8E72199F6E7229B5B075A
:1045900004D50CAB2B221A550134C8E7229B1B070C
:1045A000C5D50CAB20221A550134C0E7FFFFEFFF41
:1045B000FFFFEF7F65CDCD4165CDCDC1004B011033
:1045C000044B0110F84A0110F44A0110F04C01109C
:1045D0000000E03FF0B5DE4657464E464546E0B5A2
:1045E00093B082468B4690461193002900D1EBE2AE
:1045F00000275546119B1878002800D1E7E22528AE
:1046000009D07C1C43463A005946A847119B013308
:1046100011932700EEE7013311930024119A1178CA
:104620000B00203BD8B2102803D88300D048C358D1
:104630009F460B00303BDBB2092B2CD92A292FD007
:1046400000230A93119B1A782E2A39D000239A4608
:10465000119A1378683BD9B2122976D88B00C549D4
:10466000CB589F4601231C4301321192D6E7022307
:104670001C4301321192D1E704231C4301321192F1
:10468000CCE708231C4301321192C7E710231C43D7
:1046900001321192C2E711A8FFF726FA0A90D1E77A
:1046A0001C9B1A1D1C921868002804DB0A90119BA1
:1046B00001331193C6E702231C4343420A93F6E7F2
:1046C0008022D20014435A1C11925A781300303BB6
:1046D000DBB2092B04D92A2A07D000239A46B7E770
:1046E00011A8FFF701FA8246B2E71C9B1A1D1C9223
:1046F0001868002804DB8246119B01331193A7E759
:104700000020F8E780235B002343511C119152786D
:104710006C2A01D01C0018E0C0239B001C4301310F
:10472000119112E080232343511C11915278682A81
:1047300001D01C0009E0C0231C430131119104E0A9
:1047400080235B001C4301321192119B18780300F7
:10475000253BDAB2532A00D92CE29300864AD3587B
:104760009F4680239B001C4301321192EDE780237A
:104770005B001C4301321192E7E7782809D05828E2
:1047800038D06F2838D0622838D010239C430A26AE
:1047900000E01026582833D0692803D0642801D0BF
:1047A0000C229443630501D50122944369282AD041
:1047B000642828D0A30500D59FE0E30500D5B8E024
:1047C000630600D4CAE01C9A111D1C911168FF22D7
:1047D0000A4005940A9B04935346039302960023D0
:1047E0000193009243463A0059462800FFF76EFABB
:1047F000070027E01026CDE70826CBE70226C9E709
:1048000020221443C8E7A30520D4E30550D463064F
:1048100066D51C9A111D1C911168FF220A40D317FE
:10482000D118594005940A9B04935346039302966A
:10483000D20F0192009143463A0059462800FFF7F3
:1048400045FA0700119B01331193D3E61C9BDA1D37
:1048500007218A43110008311C91116853689C4656
:10486000DB170C930D930C9A0D9B100048400E9093
:10487000624653400F930E980F990C9A0D9B801A25
:1048800099410E900F9108940A9B07935346069303
:104890000496002305936346DA0F0292009001917B
:1048A00043463A0059462800FFF76EFA0700C9E769
:1048B0001C9A111D1C911268D317D11859400594E8
:1048C0000A9B0493534603930296D20F01920091E0
:1048D00043463A0059462800FFF7F8F90700B1E7C8
:1048E000230605D51C9A111D1C910023D25E96E764
:1048F0001C9A111D1C91126891E71C9BDA1D07215F
:104900008A43110008311C9108940A9B079353466F
:10491000069304960023059302931368546800934A
:10492000019443463A0059462800FFF72DFA070044
:1049300088E71C9A111D1C9105940A9B0493534609
:1049400003930296002301931368009343463A00B1
:1049500059462800FFF7BAF9070073E723060DD57B
:104960001C9A111D1C9112681204120C31E7C046EA
:104970000C4B0110504B01109C4B01101C9A111D47
:104980001C91126825E746281AD01C9B0733072282
:1049900093431A0008321C9204940A9A03925246D6
:1049A00002925C681B680093019443463A005946A2
:1049B0002800FFF765FC0700119B0133119319E6EE
:1049C00020231C43E1E7672801D0472802D1802338
:1049D0001B011C43452801D0472801D120231C433B
:1049E0001C9B0733072293431A0008321C9204943D
:1049F0000A9A0392524602925C681B6800930194E3
:104A000043463A0059462800FFF730FA0700119B49
:104A100001331193EEE502231A002240924623420D
:104A20001FD001241C9B1A1D1C927A1C91461878D9
:104A300043463A005946A8475346002B16D1119BCE
:104A4000013311934F46D5E5561C43465946202065
:104A5000B847230032005C1C9D42F5D83D0017008A
:104A6000E0E701233A002F000A9DF4E74A46A946F1
:104A70000A9D06E0571C434659462020C84734008B
:104A80003A00661CA542F5D84D469146D7E71C9BD7
:104A90001A1D1C921B6899465346002B00D1013BFE
:104AA0004E4601E0013613003278002A02D05A1E29
:104AB000002BF7D14B46F21A10928023DB00260020
:104AC0001E401C4203D0524501D953461093022385
:104AD0001A0022400B92234205D03A0037004C4680
:104AE000A946554620E03A00109B5F46B3462E008B
:104AF00006E0551C434639002020B04723002A0019
:104B00005C1C0A999942F4D835005E46BB46109465
:104B100037004C46A946554606E01D000134561C98
:104B200043465946C84732002078002804D0002F59
:104B3000F4D06B1E002DF0D117004D460B9B002BBF
:104B400003D1119B0133119354E50A9F109B06E09A
:104B5000561C434659462020A847230032005C1CBF
:104B60009F42F5D81700ECE721231C431C9B1A1D1C
:104B70001C921B68009305940823049353460393E7
:104B8000102302930023019343463A00594628001C
:104B9000FFF79CF80700119B013311932AE57C1C59
:104BA00043463A0059462520A847119B01331193EB
:104BB00027001FE57C1C43463A005946A847119B35
:104BC00001331193270015E50A4B9A4610E5AA46D2
:104BD000474502D343465A1E00E03A004346594631
:104BE0000020D047380013B0F0BCBB46B246A946FF
:104BF000A046F0BDD93A001000B585B002900391EF
:104C00000121009313004A4202A90248FFF7E2FC87
:104C100005B000BDDB3A001001480421014B1847E4
:104C2000C0120020554C0010014B9B681847000033
:104C3000C012002010B5010018231B881422108810
:104C4000984710BD10B5010018231B881622108844
:104C5000984710BDF0B5C64600B507000E00002508
:104C60000123984600E00135B5420AD2AC003C1958
:104C70002068FFF7DFFF20600028F4D1002398466A
:104C8000F1E7404680BCB846F0BD0000124A936F81
:104C90009B0815D29066D166002905D0FFE7FFE793
:104CA000FFE7516F106F704704B580210906C217E6
:104CB0005140002800D0C8430EF0FEFC002104BD86
:104CC000F0B5146E556E576F166FFFF7E3FF14665D
:104CD000556657671667F0BD000000D0114A936F04
:104CE0009B0813D210665166002905D0FFE7FFE745
:104CF000FFE7516F106F704704B5002801D0002006
:104D0000C0430EF0D9FC002104BDC046F0B5146EBE
:104D1000556E576F166FFFF7E5FF146655665767B8
:104D20001667F0BD000000D094464E4A926F92087C
:104D3000624601D230E0C046F0B54A4EB56F6D080C
:104D4000FCD3346E756E776F366F00F025F894469D
:104D5000444A14665566576716676246F0BDC046FA
:104D60009446404A926F9208624601D258E0C0468B
:104D7000F0B53C4EB56F6D08FCD3346E756E776F31
:104D8000366F00F04DF89446364A146655665767FC
:104D900016676246F0BDC046002B24DB11D0002907
:104DA0003EDA00B5C943404200D1013100F038F885
:104DB000C943404200D10131DB43524200D10133AB
:104DC00000BD002AEBD1002801D1002905D0002028
:104DD000C90FC90701D1C043410800B50EF044FC1A
:104DE0000022002300BD00B500290ADBDB4352424C
:104DF00000D1013300F014F8C943404200D1013121
:104E000000BDC943404200D10131DB43524200D1D1
:104E1000013300F005F8DB43524200D1013300BDFD
:104E2000002923D1002B18D1002A0CD0BC460D4FED
:104E300038667A6600210023FFE7FFE7FFE77A6F15
:104E4000386F67467047002801D00748010000B559
:104E50000EF00AFC0022002300BD02000B0000201F
:104E600000217047000000D0FFFFFFFF002B00D0A3
:104E7000BFE0130C28D1002AE7D080B4114F396667
:104E80007A66FFE7FFE730B4040C7B6F396F1B04D1
:104E900023433B667A66FFE7FFE7FFE7C04684B23D
:104EA0007B6F3D6F1B0423433B667A66FFE7FFE79A
:104EB000C04600232C042D0C7A6F386F001969410D
:104EC000B0BC7047000000D0F0B594460025140E29
:104ED00001D112020835140F01D112010435940FCB
:104EE00001D192000235D40F01D152000135D40B0B
:104EF0000134254F7C66254C3C660E0C93B2FFE7CF
:104F0000FFE7FFE73C6F6643360C7703BE4673430B
:104F1000DF0B5B04C01AB941130C7343DB18C91AC9
:104F2000CE086643360CB64493B273431F0F1B0181
:104F3000C01AB941130C73431F0B1B05C01AB941AA
:104F4000860D8F023E436643360C092D24DB520A40
:104F50007243801A7703460A6643360C16235B1B9E
:104F6000DE40DF40BF1964466643821B704604354D
:104F700006330100D940A840C01900D30131A24234
:104F800006D20023F0BD0000000000D0FFFFFFFFAD
:104F9000121B0130F3D3F1E709277F1BFE40644663
:104FA000A2B27243801A00D20139220C7243130C50
:104FB0001204821A99410B00704604351337010020
:104FC000F940A840801900D30131002B02D1A24240
:104FD0000AD2F0BD013000D30131121BFAD2013BDD
:104FE000F8D1A24200D2F0BD013000D30131121B32
:104FF000F7E7F0B51C0C00D080E00CB400251C0ACB
:1050000004D11B02160E3343120208351C0B04D1C7
:105010001B01160F3343120104359C0B04D19B0076
:10502000960F334392000235DC0B02D192185B419C
:1050300001351C00971864410134464F7C66464C8C
:105040003C660E0CFFE7FFE7FFE7C0463C6F664398
:10505000360C7703BE4697B27743C01B00D20139A6
:10506000C01B00D201399FB27743C91BC91B170C63
:1050700077437E04FF0B801BB941CE086643360C94
:105080000C2D33DBB644120B1F053A431B0B97B2B2
:105090007743C01B00D201399FB27743C91B170C5D
:1050A00077433E043F0C801BB941860D8F023E437F
:1050B000664329277F1BFE400C3D7746AF40BF1952
:1050C00030BCA2B2ABB272437343801A9941220C36
:1050D0007243130C1204801A994102000B0001372D
:1050E000001BA941F9D2781E0021F0BD0C277F1BBF
:1050F000FE4077467F0BAF40FF19E0E700245D1CC0
:1051000007D0144F7D663966FFE7FFE7FFE7FFE74B
:105110003C6F95B29EB265436643401BB141150C8E
:105120001E0C6543664336042F0C3E432D04401B82
:10513000B141994204D202000B0020000021F0BDD1
:1051400001D19042F7D3801A994101349942F2D3A8
:10515000F6E70000000000D0FFFFFFFF484041409D
:10516000484018B4134B5B68019308BD18B4114B49
:105170001B68019308BD94460F4A926F920805D2AE
:10518000624618B40B4BDB68019308BD0A4AF0B5C0
:10519000146E556E576F166F6246FFF7F2FF064AA0
:1051A0001466556657671667F0BD18B4014B9B68C7
:1051B000019308BD38CB0120000000D0FFB550405E
:1051C0004240504059404B40594000E0FFB5154F18
:1051D0004C00640D03D0BC4204D10C0314D8002051
:1051E000090D09055C00640D03D0BC4204D11C0309
:1051F0000AD800221B0D1B0501264B4009D44B4049
:1052000003D58B4200D18242FFBD9942FCD190422E
:10521000FFBD0B43DB1803431343F5D0C9434918C3
:10522000FFBD0000FF07000000B5FFF7CFFF804182
:1052300000BDC04600B5FFF7C9FF01D9002000BD81
:10524000012000BD00B5FFF7B9FF01D9002000BD66
:10525000012000BD00B5FFF7B1FF804100BD012076
:1052600040054A00121804D85A00121801D800202C
:10527000704701207047002070470000002100287F
:1052800005D17047C1174840401AFAD0C90713B575
:10529000064B1B6898470CBC441CA2401005120B1F
:1052A0000349091B09051943114310BD3CCC0120DA
:1052B0001F04000010B54C00620D8023D218DB00E3
:1052C000D21A5B057E2A10DD9E3A13DACC17090349
:1052D000490819435242D140640001341532202A52
:1052E00005DAD0400843604310BD002010BD0846D9
:1052F000604310BDC80FC018013810BD18B4024B70
:105300005B6A019308BD000038CB012010B501484D
:10531000FEF700FA404D011070B513231C78012CE4
:1053200014D0012C14DC022C02DC1F4A1F4B9A649F
:105330001F48FFF77FFC1F4B186070BD99001E4887
:105340001A4A885001331F2BF8D9EAE70023FAE7FD
:105350001A48FFF777FC05001948FFF773FC02387D
:1053600003789B007F2B19DD802229000F4800F075
:1053700065F9022CD7D1134B1A88B5231B029A4228
:1053800009D1114B1A88114B9A4204D1104B1A883B
:10539000104B9A42C7D00020FEF7BCF90E4B0F4AC3
:1053A00032210F48FEF71CF9E553001038CB0120DD
:1053B0004C3300003CCC01200D530010534400003E
:1053C0005346000054380000D83800004946000019
:1053D0009C38000059460000584D0110044E011041
:1053E000B84D011007B56046002800D100BE018805
:1053F0000A0A0230DF2AFAD1C9B2820804D302882D
:1054000040880004104300E00068024A50500390B6
:1054100007BD000038CB012051434343C9188C46D7
:10542000110C83B24B4310B4040C614392B280B2AE
:10543000504362431C041B0C001910BC5941130457
:10544000120CC0185141614470470000484041406F
:1054500048400E4B5B6818470C4B1B6818470C4ABA
:10546000936F9B0802D2094BDB681847F0B5146EA6
:10547000556E576F166FFFF7F6FF054A14665566AF
:1054800057671667F0BD014B9B68184740CC012059
:10549000000000D0491A002808D1084670470000D3
:1054A000C10FC90700D54042002817D0F44603B405
:1054B0000B4B1B68984706BC81409E3840428031A8
:1054C00007D20B0607D04900490AC005104308431C
:1054D00060470130F8E7490A8902F5E770470000A4
:1054E0003CCC0120014B5B6A1847000040CC0120F6
:1054F00010B50148FEF70EF9F039011070B513230D
:105500001E781848FFF79EFB0500012E11D0012ED2
:1055100009DDAB1E1B789B007F2B1DDD802229003F
:10552000114800F08BF81148FFF784FB104B18600E
:1055300070BD542201000C4800F080F8002300E008
:1055400001331F2BE3D89A00074C1259002AF7D1D8
:105550009A0008481051F3E7074B084A42210848CF
:10556000FEF73EF85346000040CC01204C330000CB
:105570003CCC0120F1540010184E0110944E011043
:105580004C4E011070B504000A4E30000EF0D4F8F5
:1055900020000DF075F8050030000EF05DF8002DCC
:1055A00005D02C19044B9C4201D8280070BD03483B
:1055B000FEF7B0F8481B002000000420A84E0110A0
:1055C00070B505000C000B4E30000EF0B5F8210050
:1055D00028000CF0E3FF050030000EF03DF8002D30
:1055E00005D02C19044B9C4201D8280070BD0348FB
:1055F000FEF790F8481B002000000420A84E011080
:1056000070B50400054D28000EF096F820000DF04E
:1056100041F828000EF020F870BDC046481B00205D
:1056200001480421014B1847D0120020554C0010AE
:10563000014B1B6818470000D0120020014B5B682B
:1056400018470000D012002010B5FFF7D9FF10BD99
:1056500010B50300080011001B68984710BD00003A
:10566000F8B507000D001600437C002B02D0002483
:1056700000200CE003681100280098472DE03B7CD7
:1056800010E0022115483B689847601C0134B44281
:1056900014DA002CF3DD2B19013B1B780D3B5A4229
:1056A0005341DBB22A5D0A2AF0D1002BEED1A04291
:1056B000E7DA211A28183B689847E2E7B04203DA94
:1056C000311A28183B689847002E06DDAD19013DB8
:1056D0002B780D3B5A4253413B74F8BD1C4F0110CF
:1056E00070B505000368002B16D00C4B1C6805E054
:1056F000290004C92000FFF7B3FFE468002C09D09B
:105700002368002BF9D0064B1B68002BF0D0A34276
:10571000F3D1EDE700232B6070BDC046982F012028
:105720009C2F012070B505000C000B68802B05D064
:1057300021684B1C23606418257170BD0800FFF7B9
:10574000CFFFF5E710B582B0D0231B0600241C570D
:1057500001A907480DF0C0FF002806D1019B9C421B
:1057600003D003480DF0E8FF012002B010BDC04691
:10577000501B002010B502480DF06EFF10BDC04652
:10578000501B0020F0B5CE46474680B583B00600DA
:105790000D0090461C00FFF7D5FF81466B1C05D01D
:1057A000002C08D0194F1A4B1C6807E030000DF090
:1057B00071FC0500F4E7174FF5E7E468002C17D0FB
:1057C0002368002BF9D0144B1B68002B01D0A34297
:1057D000F3D12A0031002000B8474346002BECD01B
:1057E0006B46D91D0A230B7001222000B847E4E75D
:1057F0004B46002B07D16B1E9D41E8B203B0C0BCE5
:10580000B946B046F0BDFFF7B5FFF4E751560010BA
:10581000982F0120615600109C2F012010B582B0F6
:1058200004006B46D81D0470002300220121FFF7FD
:10583000A9FF200002B010BD094A01E00C331A0094
:105840001368002B08D08342F8D1002907D1C36820
:1058500013600023C36002E0002900D0106070478D
:10586000982F012010B5064B1C6801E09847E468AA
:10587000002C03D06368002BF8D1F8E710BDC046B8
:10588000982F012070B505000DF004FC04000023E2
:10589000012201002800FFF775FFFFF7E3FF20005A
:1058A00070BD000070B5A2B004000E00FFF74AFF03
:1058B00005008422002101A8FFF7BAFE3300220070
:1058C00001A90848FFF798F9040001A8FFF708FFAD
:1058D000FFF7C8FF002D02D1200022B070BDFFF7F6
:1058E00049FFF9E7255700100FB400B583B004A9AC
:1058F00001C90191FFF7D6FF03B008BC04B01847F7
:1059000010B500F085F810BDF0B583B005000E00AD
:1059100000240FE06B46D91D0D230B7000200028DA
:1059200016D193699B06FCD40B78136001300131CA
:10593000F5E70134B44219DA0D4B1A682F5D0D4BAF
:10594000D31859424B415B000B495B5EBB42E1D02F
:105950006B46D91D0F7000200028EAD193699B0681
:10596000FCD40B78136001300131F5E703B0F0BDD2
:1059700090CD01200080FCBF8CCD0120F0B583B01C
:1059800006000F00002004E06B4607331B782370ED
:105990002800B84215DA0E4B1A68936910242100CA
:1059A00019401C420DD1451C34186B46D81D0029E6
:1059B000EAD19369DB06FCD413680370013101302E
:1059C000F5E7002801D003B0F0BD0338FBE7C0467F
:1059D00090CD012070B515001C000B4B1860FDF731
:1059E0009DFD002D06DA002C09DA01210748FFF79A
:1059F00023FF70BD02212800FBF7F2FEF3E702212E
:105A00002000FBF7EDFEF0E790CD0120E012002032
:105A100010B5064B1B78064B1B78E12101230022B1
:105A200049020448FFF7D6FF10BDC0462CE404101D
:105A300030E40410004003400523CB56002B01DB6B
:105A4000934211D1094B9C46604443425841800027
:105A5000074BC058097901238B40013B9340184004
:105A600043425841C0B270470020FCE70000D0AF6D
:105A7000BC1E012070B50A79202A19D8174B9C4604
:105A80006044434258418000154BC4580123934061
:105A9000013B497949B2002910DB08002025AA1AE8
:105AA000914218DC8B401C4201D00120404270BD65
:105AB0000C4B0D4A40210D48FDF792FD2020801A25
:105AC000002805DB1A0082401442F0D00138F7E7C5
:105AD00001204042EBE701204042E8E70000D0AF60
